{
  "contractName": "AudioRegistry",
  "abi": [
    {
      "anonymous": false,
      "inputs": [
        {
          "indexed": false,
          "internalType": "string",
          "name": "ipfsHash",
          "type": "string"
        },
        {
          "indexed": false,
          "internalType": "string",
          "name": "filename",
          "type": "string"
        },
        {
          "indexed": false,
          "internalType": "uint256",
          "name": "timestamp",
          "type": "uint256"
        },
        {
          "indexed": false,
          "internalType": "address",
          "name": "owner",
          "type": "address"
        }
      ],
      "name": "AudioRegistered",
      "type": "event"
    },
    {
      "inputs": [
        {
          "internalType": "string",
          "name": "_filename",
          "type": "string"
        },
        {
          "internalType": "string",
          "name": "_ipfsHash",
          "type": "string"
        }
      ],
      "name": "registerAudio",
      "outputs": [],
      "stateMutability": "nonpayable",
      "type": "function"
    },
    {
      "inputs": [
        {
          "internalType": "string",
          "name": "_ipfsHash",
          "type": "string"
        }
      ],
      "name": "getAudio",
      "outputs": [
        {
          "internalType": "string",
          "name": "",
          "type": "string"
        },
        {
          "internalType": "uint256",
          "name": "",
          "type": "uint256"
        },
        {
          "internalType": "address",
          "name": "",
          "type": "address"
        }
      ],
      "stateMutability": "view",
      "type": "function",
      "constant": true
    },
    {
      "inputs": [],
      "name": "getTotalAudios",
      "outputs": [
        {
          "internalType": "uint256",
          "name": "",
          "type": "uint256"
        }
      ],
      "stateMutability": "view",
      "type": "function",
      "constant": true
    },
    {
      "inputs": [
        {
          "internalType": "uint256",
          "name": "index",
          "type": "uint256"
        }
      ],
      "name": "getAudioByIndex",
      "outputs": [
        {
          "internalType": "string",
          "name": "",
          "type": "string"
        },
        {
          "internalType": "string",
          "name": "",
          "type": "string"
        },
        {
          "internalType": "uint256",
          "name": "",
          "type": "uint256"
        },
        {
          "internalType": "address",
          "name": "",
          "type": "address"
        }
      ],
      "stateMutability": "view",
      "type": "function",
      "constant": true
    }
  ],
  "bytecode": "0x608060405234801561000f575f80fd5b5061102b8061001d5f395ff3fe608060405234801561000f575f80fd5b506004361061004a575f3560e01c80630455a4e11461004e5780634111333e146100805780637ed59edb146100b3578063aa5db867146100d1575b5f80fd5b610068600480360381019061006391906108ee565b6100ed565b60405161007793929190610a06565b60405180910390f35b61009a60048036038101906100959190610a6c565b610324565b6040516100aa9493929190610a97565b60405180910390f35b6100bb6105e3565b6040516100c89190610ae8565b60405180910390f35b6100eb60048036038101906100e69190610b01565b6105ef565b005b60605f805f80856040516101019190610bb1565b9081526020016040518091039020600101805461011d90610bf4565b90501161015f576040517f08c379a000000000000000000000000000000000000000000000000000000000815260040161015690610c6e565b60405180910390fd5b5f808560405161016f9190610bb1565b90815260200160405180910390206040518060800160405290815f8201805461019790610bf4565b80601f01602080910402602001604051908101604052809291908181526020018280546101c390610bf4565b801561020e5780601f106101e55761010080835404028352916020019161020e565b820191905f5260205f20905b8154815290600101906020018083116101f157829003601f168201915b5050505050815260200160018201805461022790610bf4565b80601f016020809104026020016040519081016040528092919081815260200182805461025390610bf4565b801561029e5780601f106102755761010080835404028352916020019161029e565b820191905f5260205f20905b81548152906001019060200180831161028157829003601f168201915b5050505050815260200160028201548152602001600382015f9054906101000a900473ffffffffffffffffffffffffffffffffffffffff1673ffffffffffffffffffffffffffffffffffffffff1673ffffffffffffffffffffffffffffffffffffffff16815250509050805f015181604001518260600151935093509350509193909250565b6060805f806001805490508510610370576040517f08c379a000000000000000000000000000000000000000000000000000000000815260040161036790610cd6565b60405180910390fd5b5f6001868154811061038557610384610cf4565b5b905f5260205f2001805461039890610bf4565b80601f01602080910402602001604051908101604052809291908181526020018280546103c490610bf4565b801561040f5780601f106103e65761010080835404028352916020019161040f565b820191905f5260205f20905b8154815290600101906020018083116103f257829003601f168201915b505050505090505f80826040516104269190610bb1565b90815260200160405180910390206040518060800160405290815f8201805461044e90610bf4565b80601f016020809104026020016040519081016040528092919081815260200182805461047a90610bf4565b80156104c55780601f1061049c576101008083540402835291602001916104c5565b820191905f5260205f20905b8154815290600101906020018083116104a857829003601f168201915b505050505081526020016001820180546104de90610bf4565b80601f016020809104026020016040519081016040528092919081815260200182805461050a90610bf4565b80156105555780601f1061052c57610100808354040283529160200191610555565b820191905f5260205f20905b81548152906001019060200180831161053857829003601f168201915b5050505050815260200160028201548152602001600382015f9054906101000a900473ffffffffffffffffffffffffffffffffffffffff1673ffffffffffffffffffffffffffffffffffffffff1673ffffffffffffffffffffffffffffffffffffffff16815250509050805f0151816020015182604001518360600151955095509550955050509193509193565b5f600180549050905090565b5f80826040516105ff9190610bb1565b9081526020016040518091039020600101805461061b90610bf4565b90501461065d576040517f08c379a000000000000000000000000000000000000000000000000000000000815260040161065490610d6b565b60405180910390fd5b60405180608001604052808381526020018281526020014281526020013373ffffffffffffffffffffffffffffffffffffffff168152505f826040516106a39190610bb1565b90815260200160405180910390205f820151815f0190816106c49190610f26565b5060208201518160010190816106da9190610f26565b50604082015181600201556060820151816003015f6101000a81548173ffffffffffffffffffffffffffffffffffffffff021916908373ffffffffffffffffffffffffffffffffffffffff160217905550905050600181908060018154018082558091505060019003905f5260205f20015f90919091909150908161075f9190610f26565b507f80e3da6cce9ac9b268849c53326db489eeb0d48cff552e9b3fba818d93d50d6b818342336040516107959493929190610a97565b60405180910390a15050565b5f604051905090565b5f80fd5b5f80fd5b5f80fd5b5f80fd5b5f601f19601f8301169050919050565b7f4e487b71000000000000000000000000000000000000000000000000000000005f52604160045260245ffd5b610800826107ba565b810181811067ffffffffffffffff8211171561081f5761081e6107ca565b5b80604052505050565b5f6108316107a1565b905061083d82826107f7565b919050565b5f67ffffffffffffffff82111561085c5761085b6107ca565b5b610865826107ba565b9050602081019050919050565b828183375f83830152505050565b5f61089261088d84610842565b610828565b9050828152602081018484840111156108ae576108ad6107b6565b5b6108b9848285610872565b509392505050565b5f82601f8301126108d5576108d46107b2565b5b81356108e5848260208601610880565b91505092915050565b5f60208284031215610903576109026107aa565b5b5f82013567ffffffffffffffff8111156109205761091f6107ae565b5b61092c848285016108c1565b91505092915050565b5f81519050919050565b5f82825260208201905092915050565b5f5b8381101561096c578082015181840152602081019050610951565b5f8484015250505050565b5f61098182610935565b61098b818561093f565b935061099b81856020860161094f565b6109a4816107ba565b840191505092915050565b5f819050919050565b6109c1816109af565b82525050565b5f73ffffffffffffffffffffffffffffffffffffffff82169050919050565b5f6109f0826109c7565b9050919050565b610a00816109e6565b82525050565b5f6060820190508181035f830152610a1e8186610977565b9050610a2d60208301856109b8565b610a3a60408301846109f7565b949350505050565b610a4b816109af565b8114610a55575f80fd5b50565b5f81359050610a6681610a42565b92915050565b5f60208284031215610a8157610a806107aa565b5b5f610a8e84828501610a58565b91505092915050565b5f6080820190508181035f830152610aaf8187610977565b90508181036020830152610ac38186610977565b9050610ad260408301856109b8565b610adf60608301846109f7565b95945050505050565b5f602082019050610afb5f8301846109b8565b92915050565b5f8060408385031215610b1757610b166107aa565b5b5f83013567ffffffffffffffff811115610b3457610b336107ae565b5b610b40858286016108c1565b925050602083013567ffffffffffffffff811115610b6157610b606107ae565b5b610b6d858286016108c1565b9150509250929050565b5f81905092915050565b5f610b8b82610935565b610b958185610b77565b9350610ba581856020860161094f565b80840191505092915050565b5f610bbc8284610b81565b915081905092915050565b7f4e487b71000000000000000000000000000000000000000000000000000000005f52602260045260245ffd5b5f6002820490506001821680610c0b57607f821691505b602082108103610c1e57610c1d610bc7565b5b50919050565b7f417564696f206e6f7420666f756e6421000000000000000000000000000000005f82015250565b5f610c5860108361093f565b9150610c6382610c24565b602082019050919050565b5f6020820190508181035f830152610c8581610c4c565b9050919050565b7f496e76616c696420696e646578210000000000000000000000000000000000005f82015250565b5f610cc0600e8361093f565b9150610ccb82610c8c565b602082019050919050565b5f6020820190508181035f830152610ced81610cb4565b9050919050565b7f4e487b71000000000000000000000000000000000000000000000000000000005f52603260045260245ffd5b7f417564696f20616c7265616479206578697374732100000000000000000000005f82015250565b5f610d5560158361093f565b9150610d6082610d21565b602082019050919050565b5f6020820190508181035f830152610d8281610d49565b9050919050565b5f819050815f5260205f209050919050565b5f6020601f8301049050919050565b5f82821b905092915050565b5f60088302610de57fffffffffffffffffffffffffffffffffffffffffffffffffffffffffffffffff82610daa565b610def8683610daa565b95508019841693508086168417925050509392505050565b5f819050919050565b5f610e2a610e25610e20846109af565b610e07565b6109af565b9050919050565b5f819050919050565b610e4383610e10565b610e57610e4f82610e31565b848454610db6565b825550505050565b5f90565b610e6b610e5f565b610e76818484610e3a565b505050565b5b81811015610e9957610e8e5f82610e63565b600181019050610e7c565b5050565b601f821115610ede57610eaf81610d89565b610eb884610d9b565b81016020851015610ec7578190505b610edb610ed385610d9b565b830182610e7b565b50505b505050565b5f82821c905092915050565b5f610efe5f1984600802610ee3565b1980831691505092915050565b5f610f168383610eef565b9150826002028217905092915050565b610f2f82610935565b67ffffffffffffffff811115610f4857610f476107ca565b5b610f528254610bf4565b610f5d828285610e9d565b5f60209050601f831160018114610f8e575f8415610f7c578287015190505b610f868582610f0b565b865550610fed565b601f198416610f9c86610d89565b5f5b82811015610fc357848901518255600182019150602085019450602081019050610f9e565b86831015610fe05784890151610fdc601f891682610eef565b8355505b6001600288020188555050505b50505050505056fea264697066735822122003cb6d9e0e66b0742ea4a123c1cabd7116e547dff0ee2d950a747fc91e82d2ed64736f6c63430008150033",
  "immutableReferences": {},
  "source": "// SPDX-License-Identifier: MIT\r\npragma solidity ^0.8.0;\r\n\r\ncontract AudioRegistry {\r\n    struct Audio {\r\n        string filename;\r\n        string ipfsHash;\r\n        uint256 timestamp;\r\n        address owner;\r\n    }\r\n\r\n    mapping(string => Audio) private audioFiles; // Keep mapping for quick lookup\r\n    string[] private audioHashes; // Store IPFS hashes to track total count\r\n\r\n    event AudioRegistered(string ipfsHash, string filename, uint256 timestamp, address owner);\r\n\r\n    function registerAudio(string memory _filename, string memory _ipfsHash) public {\r\n        require(bytes(audioFiles[_ipfsHash].ipfsHash).length == 0, \"Audio already exists!\");\r\n\r\n        audioFiles[_ipfsHash] = Audio({\r\n            filename: _filename,\r\n            ipfsHash: _ipfsHash,\r\n            timestamp: block.timestamp,\r\n            owner: msg.sender\r\n        });\r\n\r\n        audioHashes.push(_ipfsHash); // Store hash to keep track of total audios\r\n\r\n        emit AudioRegistered(_ipfsHash, _filename, block.timestamp, msg.sender);\r\n    }\r\n\r\n    function getAudio(string memory _ipfsHash) public view returns (string memory, uint256, address) {\r\n        require(bytes(audioFiles[_ipfsHash].ipfsHash).length > 0, \"Audio not found!\");\r\n        Audio memory audio = audioFiles[_ipfsHash];\r\n        return (audio.filename, audio.timestamp, audio.owner);\r\n    }\r\n\r\n    function getTotalAudios() public view returns (uint256) {\r\n        return audioHashes.length; // Return total count\r\n    }\r\n\r\n    function getAudioByIndex(uint256 index) public view returns (string memory, string memory, uint256, address) {\r\n        require(index < audioHashes.length, \"Invalid index!\");\r\n        string memory ipfsHash = audioHashes[index];\r\n        Audio memory audio = audioFiles[ipfsHash];\r\n        return (audio.filename, audio.ipfsHash, audio.timestamp, audio.owner);\r\n    }\r\n}\r\n",
  "sourcePath": "/Users/reshikasuresh/Desktop/project/blockchain/contracts/AudioRegistry.sol",
  "compiler": {
    "name": "solc",
    "version": "0.8.21+commit.d9974bed.Emscripten.clang"
  },
  "schemaVersion": "3.4.16",
  "updatedAt": "2025-03-16T12:46:08.421Z",
  "networkType": "ethereum",
  "devdoc": {
    "kind": "dev",
    "methods": {},
    "version": 1
  },
  "userdoc": {
    "kind": "user",
    "methods": {},
    "version": 1
  }
}